{
  "address": "0x5e33691CdBD5aBC8DdcAAFBdB36cd1520F5c8A8E",
  "abi": [
    {
      "inputs": [
        {
          "internalType": "contract RoleStore",
          "name": "_roleStore",
          "type": "address"
        },
        {
          "internalType": "contract OracleStore",
          "name": "_oracleStore",
          "type": "address"
        },
        {
          "internalType": "address",
          "name": "_pyth",
          "type": "address"
        }
      ],
      "stateMutability": "nonpayable",
      "type": "constructor"
    },
    {
      "inputs": [
        {
          "internalType": "address",
          "name": "token",
          "type": "address"
        }
      ],
      "name": "EmptyPriceFeed",
      "type": "error"
    },
    {
      "inputs": [
        {
          "internalType": "address",
          "name": "token",
          "type": "address"
        }
      ],
      "name": "EmptyPriceFeedMultiplier",
      "type": "error"
    },
    {
      "inputs": [
        {
          "internalType": "address",
          "name": "token",
          "type": "address"
        }
      ],
      "name": "EmptyPrimaryPrice",
      "type": "error"
    },
    {
      "inputs": [
        {
          "internalType": "address",
          "name": "token",
          "type": "address"
        },
        {
          "internalType": "int256",
          "name": "price",
          "type": "int256"
        }
      ],
      "name": "InvalidFeedPrice",
      "type": "error"
    },
    {
      "inputs": [
        {
          "internalType": "address",
          "name": "token",
          "type": "address"
        },
        {
          "internalType": "uint256",
          "name": "min",
          "type": "uint256"
        },
        {
          "internalType": "uint256",
          "name": "max",
          "type": "uint256"
        }
      ],
      "name": "InvalidMinMaxForPrice",
      "type": "error"
    },
    {
      "inputs": [
        {
          "internalType": "uint256",
          "name": "tokensWithPricesLength",
          "type": "uint256"
        }
      ],
      "name": "NonEmptyTokensWithPrices",
      "type": "error"
    },
    {
      "inputs": [
        {
          "internalType": "address",
          "name": "token",
          "type": "address"
        },
        {
          "internalType": "uint256",
          "name": "minPrice",
          "type": "uint256"
        },
        {
          "internalType": "uint256",
          "name": "maxPrice",
          "type": "uint256"
        }
      ],
      "name": "PriceAlreadySet",
      "type": "error"
    },
    {
      "inputs": [
        {
          "internalType": "address",
          "name": "token",
          "type": "address"
        },
        {
          "internalType": "uint256",
          "name": "timestamp",
          "type": "uint256"
        },
        {
          "internalType": "uint256",
          "name": "heartbeatDuration",
          "type": "uint256"
        }
      ],
      "name": "PriceFeedNotUpdated",
      "type": "error"
    },
    {
      "inputs": [
        {
          "internalType": "address",
          "name": "msgSender",
          "type": "address"
        },
        {
          "internalType": "string",
          "name": "role",
          "type": "string"
        }
      ],
      "name": "Unauthorized",
      "type": "error"
    },
    {
      "inputs": [],
      "name": "MAX_SIGNERS",
      "outputs": [
        {
          "internalType": "uint256",
          "name": "",
          "type": "uint256"
        }
      ],
      "stateMutability": "view",
      "type": "function"
    },
    {
      "inputs": [],
      "name": "MAX_SIGNER_INDEX",
      "outputs": [
        {
          "internalType": "uint256",
          "name": "",
          "type": "uint256"
        }
      ],
      "stateMutability": "view",
      "type": "function"
    },
    {
      "inputs": [],
      "name": "SIGNER_INDEX_LENGTH",
      "outputs": [
        {
          "internalType": "uint256",
          "name": "",
          "type": "uint256"
        }
      ],
      "stateMutability": "view",
      "type": "function"
    },
    {
      "inputs": [
        {
          "internalType": "address",
          "name": "",
          "type": "address"
        }
      ],
      "name": "blockPriceCache",
      "outputs": [
        {
          "internalType": "int64",
          "name": "price",
          "type": "int64"
        },
        {
          "internalType": "uint64",
          "name": "conf",
          "type": "uint64"
        },
        {
          "internalType": "int32",
          "name": "expo",
          "type": "int32"
        },
        {
          "internalType": "uint256",
          "name": "publishTime",
          "type": "uint256"
        }
      ],
      "stateMutability": "view",
      "type": "function"
    },
    {
      "inputs": [],
      "name": "clearAllPrices",
      "outputs": [],
      "stateMutability": "nonpayable",
      "type": "function"
    },
    {
      "inputs": [
        {
          "internalType": "contract DataStore",
          "name": "dataStore",
          "type": "address"
        },
        {
          "internalType": "address",
          "name": "token",
          "type": "address"
        }
      ],
      "name": "getPriceFeedMultiplier",
      "outputs": [
        {
          "internalType": "uint256",
          "name": "",
          "type": "uint256"
        }
      ],
      "stateMutability": "view",
      "type": "function"
    },
    {
      "inputs": [
        {
          "internalType": "address",
          "name": "token",
          "type": "address"
        }
      ],
      "name": "getPrimaryPrice",
      "outputs": [
        {
          "components": [
            {
              "internalType": "uint256",
              "name": "min",
              "type": "uint256"
            },
            {
              "internalType": "uint256",
              "name": "max",
              "type": "uint256"
            }
          ],
          "internalType": "struct Price.Props",
          "name": "",
          "type": "tuple"
        }
      ],
      "stateMutability": "view",
      "type": "function"
    },
    {
      "inputs": [
        {
          "internalType": "contract DataStore",
          "name": "dataStore",
          "type": "address"
        },
        {
          "internalType": "address",
          "name": "token",
          "type": "address"
        }
      ],
      "name": "getStablePrice",
      "outputs": [
        {
          "internalType": "uint256",
          "name": "",
          "type": "uint256"
        }
      ],
      "stateMutability": "view",
      "type": "function"
    },
    {
      "inputs": [
        {
          "internalType": "uint256",
          "name": "start",
          "type": "uint256"
        },
        {
          "internalType": "uint256",
          "name": "end",
          "type": "uint256"
        }
      ],
      "name": "getTokensWithPrices",
      "outputs": [
        {
          "internalType": "address[]",
          "name": "",
          "type": "address[]"
        }
      ],
      "stateMutability": "view",
      "type": "function"
    },
    {
      "inputs": [],
      "name": "getTokensWithPricesCount",
      "outputs": [
        {
          "internalType": "uint256",
          "name": "",
          "type": "uint256"
        }
      ],
      "stateMutability": "view",
      "type": "function"
    },
    {
      "inputs": [
        {
          "internalType": "address",
          "name": "",
          "type": "address"
        }
      ],
      "name": "lastPriceUpdateBlock",
      "outputs": [
        {
          "internalType": "uint256",
          "name": "",
          "type": "uint256"
        }
      ],
      "stateMutability": "view",
      "type": "function"
    },
    {
      "inputs": [],
      "name": "oracleStore",
      "outputs": [
        {
          "internalType": "contract OracleStore",
          "name": "",
          "type": "address"
        }
      ],
      "stateMutability": "view",
      "type": "function"
    },
    {
      "inputs": [
        {
          "internalType": "address",
          "name": "",
          "type": "address"
        }
      ],
      "name": "primaryPrices",
      "outputs": [
        {
          "internalType": "uint256",
          "name": "min",
          "type": "uint256"
        },
        {
          "internalType": "uint256",
          "name": "max",
          "type": "uint256"
        }
      ],
      "stateMutability": "view",
      "type": "function"
    },
    {
      "inputs": [],
      "name": "roleStore",
      "outputs": [
        {
          "internalType": "contract RoleStore",
          "name": "",
          "type": "address"
        }
      ],
      "stateMutability": "view",
      "type": "function"
    },
    {
      "inputs": [
        {
          "internalType": "contract DataStore",
          "name": "dataStore",
          "type": "address"
        },
        {
          "internalType": "contract EventEmitter",
          "name": "eventEmitter",
          "type": "address"
        },
        {
          "components": [
            {
              "internalType": "address[]",
              "name": "tokens",
              "type": "address[]"
            },
            {
              "internalType": "bytes[]",
              "name": "pythUpdateData",
              "type": "bytes[]"
            }
          ],
          "internalType": "struct OracleUtils.SetPricesParams",
          "name": "params",
          "type": "tuple"
        }
      ],
      "name": "setPrices",
      "outputs": [],
      "stateMutability": "payable",
      "type": "function"
    },
    {
      "inputs": [
        {
          "internalType": "address",
          "name": "token",
          "type": "address"
        },
        {
          "components": [
            {
              "internalType": "uint256",
              "name": "min",
              "type": "uint256"
            },
            {
              "internalType": "uint256",
              "name": "max",
              "type": "uint256"
            }
          ],
          "internalType": "struct Price.Props",
          "name": "price",
          "type": "tuple"
        }
      ],
      "name": "setPrimaryPrice",
      "outputs": [],
      "stateMutability": "nonpayable",
      "type": "function"
    }
  ],
  "transactionHash": "0x96e37bdbc251eab4d4677545f851fd5c987a480dd8249e16f3da51af0a4c6bc9",
  "args": [
    "0x9ce7B91B7B914E425a619b684b79e5458c8ECb5f",
    "0x8c5C3737D73e7e76c6c6a1e5E54A0b3Ac07B5E2e",
    "0xA2aa501b19aff244D90cc15a4Cf739D2725B5729"
  ],
  "numDeployments": 3,
  "solcInputHash": "f369bdc303405bfd93beb1eb7994a6a2",
  "bytecode": "0x60c06040523480156200001157600080fd5b50604051620027a7380380620027a783398101604081905262000034916200007c565b6001600160a01b03928316608052600080546001600160a01b0319169184169190911790551660a052620000d0565b6001600160a01b03811681146200007957600080fd5b50565b6000806000606084860312156200009257600080fd5b83516200009f8162000063565b6020850151909350620000b28162000063565b6040850151909250620000c58162000063565b809150509250925092565b60805160a0516126aa620000fd60003960006101300152600081816101a601526106b701526126aa6000f3fe6080604052600436106100c25760003560e01c8062ccf155146100c75780632e15bf6e146100de578063392bf7f61461011e5780633b9f9bd21461015f57806347cba33d146101745780634a4a7b041461019457806351b5107a146101c857806359ecd657146101f55780635dcf71941461020a5780637901828d14610245578063a2bbd6041461025a578063aaac8b6c146102a3578063b74da61d14610331578063d1286cb314610347578063d1358ea91461035a578063e7b918341461037a575b600080fd5b3480156100d357600080fd5b506100dc61039a565b005b3480156100ea57600080fd5b5061010b6100f93660046117a6565b60046020526000908152604090205481565b6040519081526020015b60405180910390f35b34801561012a57600080fd5b506101527f000000000000000000000000000000000000000000000000000000000000000081565b60405161011591906117c3565b34801561016b57600080fd5b5061010b601081565b34801561018057600080fd5b506100dc61018f366004611845565b610432565b3480156101a057600080fd5b506101527f000000000000000000000000000000000000000000000000000000000000000081565b3480156101d457600080fd5b506101e86101e336600461189d565b61044e565b60405161011591906118bf565b34801561020157600080fd5b5061010b610465565b34801561021657600080fd5b5061022a6102253660046117a6565b610481565b60408051825181526020928301519281019290925201610115565b34801561025157600080fd5b5061010b610512565b34801561026657600080fd5b5061028e6102753660046117a6565b6003602052600090815260409020805460019091015482565b60408051928352602083019190915201610115565b3480156102af57600080fd5b506102fa6102be3660046117a6565b60056020526000908152604090208054600190910154600782900b916001600160401b03600160401b82041691600160801b90910460030b9084565b604051610115949392919060079490940b84526001600160401b0392909216602084015260030b6040830152606082015260800190565b34801561033d57600080fd5b5061010b61010081565b6100dc610355366004611a17565b610523565b34801561036657600080fd5b5061010b610375366004611b29565b610583565b34801561038657600080fd5b5061010b610395366004611b29565b6105fc565b6103ea6040516020016103ac90611b62565b604051602081830303815290604052805190602001206040518060400160405280600a81526020016921a7a72a2927a62622a960b11b81525061069b565b60006103f6600161074b565b905060005b8181101561042e576000610410600182610755565b905061041b81610761565b508061042681611b9c565b9150506103fb565b5050565b6104446040516020016103ac90611b62565b61042e828261078f565b606061045c6001848461085a565b90505b92915050565b60016104746010610100611bcb565b61047e9190611bed565b81565b610489611683565b6001600160a01b0382166104b0575050604080518082019091526000808252602082015290565b6001600160a01b03821660009081526003602090815260409182902082518084019093528054835260010154908201526104e981610929565b1561045f578260405163cd64a02560e01b815260040161050991906117c3565b60405180910390fd5b600061051e600161074b565b905090565b6105356040516020016103ac90611b62565b61053f600161074b565b1561056a5761054e600161074b565b60405163ef2df9b560e01b815260040161050991815260200190565b61057e83838360000151846020015161093e565b505050565b6000826001600160a01b031663bd02d0f561059d84610c21565b6040518263ffffffff1660e01b81526004016105bb91815260200190565b602060405180830381865afa1580156105d8573d6000803e3d6000fd5b505050506040513d601f19601f8201168201806040525081019061045c9190611c00565b600080836001600160a01b031663bd02d0f561061785610c9d565b6040518263ffffffff1660e01b815260040161063591815260200190565b602060405180830381865afa158015610652573d6000803e3d6000fd5b505050506040513d601f19601f820116820180604052508101906106769190611c00565b90508060000361045c578260405163cc11188560e01b815260040161050991906117c3565b60405163ac4ab3fb60e01b8152336004820152602481018390527f00000000000000000000000000000000000000000000000000000000000000006001600160a01b03169063ac4ab3fb90604401602060405180830381865afa158015610706573d6000803e3d6000fd5b505050506040513d601f19601f8201168201806040525081019061072a9190611c19565b61042e57338160405163a35b150b60e01b8152600401610509929190611c81565b600061045f825490565b600061045c8383610cd8565b6001600160a01b038116600090815260036020526040812081815560019081019190915561042e9082610d02565b6020810151815111156107c05780516020820151604051630b046a0d60e11b81526105099285929091600401611ca5565b6001600160a01b03821660009081526003602090815260409182902082518084019093528054835260010154908201526107f981610929565b6108215780516020820151604051636f684cef60e11b81526105099286929091600401611ca5565b6001600160a01b038316600090815260036020908152604090912083518155908301516001918201556108549084610d17565b50505050565b606060006108678561074b565b905080831115610875578092505b60006108818585611bed565b6001600160401b03811115610898576108986117d7565b6040519080825280602002602001820160405280156108c1578160200160208202803683370190505b509050845b8481101561091d576108d88782610755565b826108e38884611bed565b815181106108f3576108f3611cc6565b6001600160a01b03909216602092830291909101909101528061091581611b9c565b9150506108c6565b509150505b9392505050565b8051600090158061045f575050602001511590565b6000805460405163d47eed4560e01b81526001600160a01b039091169063d47eed459061096f908590600401611d31565b602060405180830381865afa15801561098c573d6000803e3d6000fd5b505050506040513d601f19601f820116820180604052508101906109b09190611c00565b905034811115610a115760405162461bcd60e51b815260206004820152602660248201527f6e6f7420656e6f7567682066756e647320746f2075706461746520707269636560448201526520666565647360d01b6064820152608401610509565b600054604051631df3cbc560e31b81526001600160a01b039091169063ef9e5e28908390610a43908690600401611d31565b6000604051808303818588803b158015610a5c57600080fd5b505af1158015610a70573d6000803e3d6000fd5b505050505060005b8351811015610b7a576000848281518110610a9557610a95611cc6565b60200260200101519050600080610aac8984610d2c565b9150915081610ad057826040516344f234b160e01b815260040161050991906117c3565b6000610adc8a85610583565b9050610ae6611683565b8115610b23576040518060400160405280838510610b045783610b06565b845b8152602001838510610b185784610b1a565b835b90529050610b3b565b60405180604001604052808481526020018481525090505b610b45858261078f565b610b628a8683600001518460200151610b5b4290565b6001611098565b50505050508080610b7290611b9c565b915050610a78565b506000610b878234611bed565b90508015610c1957604051600090339083908381818185875af1925050503d8060008114610bd1576040519150601f19603f3d011682016040523d82523d6000602084013e610bd6565b606091505b5050905080610c175760405162461bcd60e51b815260206004820152600d60248201526c1499599d5b990819985a5b1959609a1b6044820152606401610509565b505b505050505050565b6000604051602001610c53906020808252600c908201526b535441424c455f505249434560a01b604082015260600190565b60408051601f198184030181528282528051602091820120908301526001600160a01b03841690820152606001604051602081830303815290604052805190602001209050919050565b6000604051602001610c5390602080825260159082015274282924a1a2afa322a2a22fa6aaa62a24a82624a2a960591b604082015260600190565b6000826000018281548110610cef57610cef611cc6565b9060005260206000200154905092915050565b600061045c836001600160a01b038416611261565b600061045c836001600160a01b038416611354565b6000806000846001600160a01b031663a6ed563e610d49866113a3565b6040518263ffffffff1660e01b8152600401610d6791815260200190565b602060405180830381865afa158015610d84573d6000803e3d6000fd5b505050506040513d601f19601f82011682018060405250810190610da89190611c00565b905080610dbc576000809250925050611091565b6040805160808101825260008082526020808301829052828401829052606083018290526001600160a01b0388168252600490529190912054439003610e6357506001600160a01b03841660009081526005602090815260409182902082516080810184528154600781900b82526001600160401b03600160401b82041693820193909352600160801b90920460030b928201929092526001909101546060820152610f54565b6000546040516331d98b3f60e01b8152600481018490526001600160a01b03909116906331d98b3f90602401608060405180830381865afa158015610eac573d6000803e3d6000fd5b505050506040513d601f19601f82011682018060405250810190610ed09190611d44565b6001600160a01b038616600090815260056020908152604080832084518154848701518488015163ffffffff16600160801b0263ffffffff60801b196001600160401b03928316600160401b026001600160801b03199094169290941691909117919091179190911617815560608501516001909101556004909152902043905590505b606081015181516000600782900b13610f9557604051635f328a5b60e11b81526001600160a01b0388166004820152600782900b6024820152604401610509565b6000886001600160a01b031663bd02d0f5610faf8a6113d6565b6040518263ffffffff1660e01b8152600401610fcd91815260200190565b602060405180830381865afa158015610fea573d6000803e3d6000fd5b505050506040513d601f19601f8201168201806040525081019061100e9190611c00565b905082421180156110275750806110258442611bed565b115b1561104b578783826040516390ce167360e01b815260040161050993929190611ca5565b60006110578a8a6105fc565b905060006110678460070b611419565b90506000611082828468327cb2734119d3b7a9601e1b61146f565b60019a50985050505050505050505b9250929050565b6110a061169d565b80516110ad906001611484565b6040805180820190915260058152643a37b5b2b760d91b602082015281516110d891600090896114e9565b60208101516110e8906004611484565b6111246000604051806040016040528060088152602001676d696e507269636560c01b815250878460200151611546909392919063ffffffff16565b6111606001604051806040016040528060088152602001676d6178507269636560c01b815250868460200151611546909392919063ffffffff16565b61119d600260405180604001604052806009815260200168074696d657374616d760bc1b815250858460200151611546909392919063ffffffff16565b6111e960036040518060400160405280600f81526020016e7072696365536f757263655479706560881b8152508460028111156111dc576111dc611dda565b6020850151929190611546565b866001600160a01b03166324de01e4611208886001600160a01b031690565b836040518363ffffffff1660e01b8152600401611226929190612555565b600060405180830381600087803b15801561124057600080fd5b505af1158015611254573d6000803e3d6000fd5b5050505050505050505050565b6000818152600183016020526040812054801561134a576000611285600183611bed565b855490915060009061129990600190611bed565b90508181146112fe5760008660000182815481106112b9576112b9611cc6565b90600052602060002001549050808760000184815481106112dc576112dc611cc6565b6000918252602080832090910192909255918252600188019052604090208390555b855486908061130f5761130f61265e565b60019003818190600052602060002001600090559055856001016000868152602001908152602001600020600090556001935050505061045f565b600091505061045f565b600081815260018301602052604081205461139b5750815460018181018455600084815260208082209093018490558454848252828601909352604090209190915561045f565b50600061045f565b6000604051602001610c53906020808252600d908201526c14149250d157d191515117d251609a1b604082015260600190565b6000604051602001610c53906020808252601d908201527f50524943455f464545445f4845415254424541545f4455524154494f4e000000604082015260600190565b60008082121561146b5760405162461bcd60e51b815260206004820181905260248201527f53616665436173743a2076616c7565206d75737420626520706f7369746976656044820152606401610509565b5090565b600061147c848484611599565b949350505050565b806001600160401b0381111561149c5761149c6117d7565b6040519080825280602002602001820160405280156114e257816020015b6040805180820190915260608152600060208201528152602001906001900390816114ba5790505b5090915250565b818460000151848151811061150057611500611cc6565b602002602001015160000181905250808460000151848151811061152657611526611cc6565b6020908102919091018101516001600160a01b0390921691015250505050565b818460000151848151811061155d5761155d611cc6565b602002602001015160000181905250808460000151848151811061158357611583611cc6565b6020026020010151602001818152505050505050565b60008080600019858709858702925082811083820303915050806000036115d3578382816115c9576115c9611bb5565b0492505050610922565b80841161161a5760405162461bcd60e51b81526020600482015260156024820152744d6174683a206d756c446976206f766572666c6f7760581b6044820152606401610509565b60008486880960026001871981018816978890046003810283188082028403028082028403028082028403028082028403028082028403029081029092039091026000889003889004909101858311909403939093029303949094049190911702949350505050565b604051806040016040528060008152602001600081525090565b604080516101208101909152606060e08201818152610100830191909152819081526020016116df604051806040016040528060608152602001606081525090565b8152602001611701604051806040016040528060608152602001606081525090565b8152602001611723604051806040016040528060608152602001606081525090565b8152602001611745604051806040016040528060608152602001606081525090565b8152602001611767604051806040016040528060608152602001606081525090565b8152602001611789604051806040016040528060608152602001606081525090565b905290565b6001600160a01b03811681146117a357600080fd5b50565b6000602082840312156117b857600080fd5b813561045c8161178e565b6001600160a01b0391909116815260200190565b634e487b7160e01b600052604160045260246000fd5b604080519081016001600160401b038111828210171561180f5761180f6117d7565b60405290565b604051601f8201601f191681016001600160401b038111828210171561183d5761183d6117d7565b604052919050565b600080828403606081121561185957600080fd5b83356118648161178e565b92506040601f198201121561187857600080fd5b506118816117ed565b6020840135815260408401356020820152809150509250929050565b600080604083850312156118b057600080fd5b50508035926020909101359150565b6020808252825182820181905260009190848201906040850190845b818110156119005783516001600160a01b0316835292840192918401916001016118db565b50909695505050505050565b60006001600160401b03821115611925576119256117d7565b5060051b60200190565b6000601f838184011261194157600080fd5b823560206119566119518361190c565b611815565b82815260059290921b8501810191818101908784111561197557600080fd5b8287015b84811015611a0b5780356001600160401b03808211156119995760008081fd5b818a0191508a603f8301126119ae5760008081fd5b858201356040828211156119c4576119c46117d7565b6119d5828b01601f19168901611815565b92508183528c818386010111156119ec5760008081fd5b8181850189850137506000908201870152845250918301918301611979565b50979650505050505050565b600080600060608486031215611a2c57600080fd5b8335611a378161178e565b9250602084810135611a488161178e565b925060408501356001600160401b0380821115611a6457600080fd5b9086019060408289031215611a7857600080fd5b611a806117ed565b823582811115611a8f57600080fd5b8301601f81018a13611aa057600080fd5b8035611aae6119518261190c565b81815260059190911b8201860190868101908c831115611acd57600080fd5b928701925b82841015611af4578335611ae58161178e565b82529287019290870190611ad2565b84525050508284013582811115611b0a57600080fd5b611b168a82860161192f565b8583015250809450505050509250925092565b60008060408385031215611b3c57600080fd5b8235611b478161178e565b91506020830135611b578161178e565b809150509250929050565b6020808252600a908201526921a7a72a2927a62622a960b11b604082015260600190565b634e487b7160e01b600052601160045260246000fd5b600060018201611bae57611bae611b86565b5060010190565b634e487b7160e01b600052601260045260246000fd5b600082611be857634e487b7160e01b600052601260045260246000fd5b500490565b8181038181111561045f5761045f611b86565b600060208284031215611c1257600080fd5b5051919050565b600060208284031215611c2b57600080fd5b8151801515811461045c57600080fd5b6000815180845260005b81811015611c6157602081850181015186830182015201611c45565b506000602082860101526020601f19601f83011685010191505092915050565b6001600160a01b038316815260406020820181905260009061147c90830184611c3b565b6001600160a01b039390931683526020830191909152604082015260600190565b634e487b7160e01b600052603260045260246000fd5b600081518084526020808501808196508360051b8101915082860160005b85811015611d24578284038952611d12848351611c3b565b98850198935090840190600101611cfa565b5091979650505050505050565b60208152600061045c6020830184611cdc565b600060808284031215611d5657600080fd5b604051608081016001600160401b038082118383101715611d7957611d796117d7565b81604052845191508160070b8214611d9057600080fd5b9082526020840151908082168214611da757600080fd5b5060208201526040830151600381900b8114611dc257600080fd5b60408201526060928301519281019290925250919050565b634e487b7160e01b600052602160045260246000fd5b600081518084526020808501808196508360051b810191508286016000805b86811015611e8b578385038a52825160408151818852611e3182890182611c3b565b92890151888403898b01528051808552908a01938693508a0191505b80831015611e765783516001600160a01b03168252928901926001929092019190890190611e4d565b509b88019b9650505091850191600101611e0f565b509298975050505050505050565b60006040808401835182865281815180845260608801915060608160051b89010193506020808401935060005b82811015611f1057898603605f1901845284518051888852611eea89890182611c3b565b918401516001600160a01b03169784019790975295509381019392810192600101611ec6565b50808801519550888503818a015250505050611f2c8183611df0565b95945050505050565b600081518084526020808501808196508360051b810191508286016000805b86811015611e8b578385038a52825160408151818852611f7682890182611c3b565b92890151888403898b01528051808552908a01938693508a0191505b80831015611fb25783518252928901926001929092019190890190611f92565b509b88019b9650505091850191600101611f54565b60006040808401835182865281815180845260608801915060608160051b89010193506020808401935060005b8281101561203557898603605f190184528451805188885261201889890182611c3b565b918401519784019790975295509381019392810192600101611ff4565b50808801519550888503818a015250505050611f2c8183611f35565b60006040808401835182865281815180845260608801915060608160051b89010193506020808401935060005b8281101561203557898603605f19018452845180518888526120a289890182611c3b565b91840151978401979097529550938101939281019260010161207e565b600081518084526020808501808196508360051b810191508286016000805b86811015611e8b578385038a5282516040815181885261210082890182611c3b565b92890151888403898b01528051808552908a01938693508a0191505b8083101561213e5783511515825292890192600192909201919089019061211c565b509b88019b96505050918501916001016120de565b60006040808401835182865281815180845260608801915060608160051b89010193506020808401935060005b828110156121c357898603605f19018452845180518888526121a489890182611c3b565b9184015115159784019790975295509381019392810192600101612180565b50808801519550888503818a015250505050611f2c81836120bf565b600081518084526020808501808196508360051b810191508286016000805b86811015611e8b578385038a5282516040815181885261222082890182611c3b565b92890151888403898b01528051808552908a01938693508a0191505b8083101561225c578351825292890192600192909201919089019061223c565b509b88019b96505050918501916001016121fe565b60006040808401835182865281815180845260608801915060608160051b89010193506020808401935060005b828110156122df57898603605f19018452845180518888526122c289890182611c3b565b91840151978401979097529550938101939281019260010161229e565b50808801519550888503818a015250505050611f2c81836121df565b600081518084526020808501808196508360051b8101915082860160005b85811015611d2457828403895281516040815181875261233b82880182611c3b565b915050868201519150858103878701526123558183611cdc565b9a87019a9550505090840190600101612319565b60006040808401835182865281815180845260608801915060608160051b89010193506020808401935060005b828110156123e657898603605f19018452845180518888526123ba89890182611c3b565b91840151888303898601529190506123d28183611c3b565b975050509381019392810192600101612396565b50808801519550888503818a015250505050611f2c81836122fb565b600081518084526020808501808196506005915083821b81018387016000805b878110156124ad578484038b5282516040815181875261244482880182611c3b565b928a0151878403888c01528051808552908b019392508a83019150808a1b83018b01865b8281101561249657601f19858303018452612484828751611c3b565b958d0195938d01939150600101612468565b509e8b019e97505050938801935050600101612422565b50919998505050505050505050565b60006040808401835182865281815180845260608801915060608160051b89010193506020808401935060005b8281101561253957898603605f190184528451805188885261250d89890182611c3b565b91840151888303898601529190506125258183611c3b565b9750505093810193928101926001016124e9565b50808801519550888503818a015250505050611f2c8183612402565b6060815260116060820152704f7261636c65507269636555706461746560781b608082015282602082015260a060408201526000825160e060a08401526125a0610180840182611e99565b90506020840151609f19808584030160c08601526125be8383611fc7565b925060408601519150808584030160e08601526125db8383612051565b92506060860151915080858403016101008601526125f98383612153565b92506080860151915080858403016101208601526126178383612271565b925060a0860151915080858403016101408601526126358383612369565b925060c0860151915080858403016101608601525061265482826124bc565b9695505050505050565b634e487b7160e01b600052603160045260246000fdfea2646970667358221220c301bb63412114ad12c0154d40fdf4a2acfd579a1c07f2fe5623c2f724cea54364736f6c63430008120033",
  "libraries": {},
  "devdoc": {
    "kind": "dev",
    "methods": {},
    "version": 1
  },
  "userdoc": {
    "kind": "user",
    "methods": {},
    "version": 1
  },
  "storageLayout": {
    "storage": [
      {
        "astId": 36024,
        "contract": "contracts/oracle/Oracle.sol:Oracle",
        "label": "pyth",
        "offset": 0,
        "slot": "0",
        "type": "t_contract(IPyth)5687"
      },
      {
        "astId": 36027,
        "contract": "contracts/oracle/Oracle.sol:Oracle",
        "label": "tokensWithPrices",
        "offset": 0,
        "slot": "1",
        "type": "t_struct(AddressSet)5263_storage"
      },
      {
        "astId": 36032,
        "contract": "contracts/oracle/Oracle.sol:Oracle",
        "label": "primaryPrices",
        "offset": 0,
        "slot": "3",
        "type": "t_mapping(t_address,t_struct(Props)51681_storage)"
      },
      {
        "astId": 36036,
        "contract": "contracts/oracle/Oracle.sol:Oracle",
        "label": "lastPriceUpdateBlock",
        "offset": 0,
        "slot": "4",
        "type": "t_mapping(t_address,t_uint256)"
      },
      {
        "astId": 36041,
        "contract": "contracts/oracle/Oracle.sol:Oracle",
        "label": "blockPriceCache",
        "offset": 0,
        "slot": "5",
        "type": "t_mapping(t_address,t_struct(Price)5720_storage)"
      }
    ],
    "types": {
      "t_address": {
        "encoding": "inplace",
        "label": "address",
        "numberOfBytes": "20"
      },
      "t_array(t_bytes32)dyn_storage": {
        "base": "t_bytes32",
        "encoding": "dynamic_array",
        "label": "bytes32[]",
        "numberOfBytes": "32"
      },
      "t_bytes32": {
        "encoding": "inplace",
        "label": "bytes32",
        "numberOfBytes": "32"
      },
      "t_contract(IPyth)5687": {
        "encoding": "inplace",
        "label": "contract IPyth",
        "numberOfBytes": "20"
      },
      "t_int32": {
        "encoding": "inplace",
        "label": "int32",
        "numberOfBytes": "4"
      },
      "t_int64": {
        "encoding": "inplace",
        "label": "int64",
        "numberOfBytes": "8"
      },
      "t_mapping(t_address,t_struct(Price)5720_storage)": {
        "encoding": "mapping",
        "key": "t_address",
        "label": "mapping(address => struct PythStructs.Price)",
        "numberOfBytes": "32",
        "value": "t_struct(Price)5720_storage"
      },
      "t_mapping(t_address,t_struct(Props)51681_storage)": {
        "encoding": "mapping",
        "key": "t_address",
        "label": "mapping(address => struct Price.Props)",
        "numberOfBytes": "32",
        "value": "t_struct(Props)51681_storage"
      },
      "t_mapping(t_address,t_uint256)": {
        "encoding": "mapping",
        "key": "t_address",
        "label": "mapping(address => uint256)",
        "numberOfBytes": "32",
        "value": "t_uint256"
      },
      "t_mapping(t_bytes32,t_uint256)": {
        "encoding": "mapping",
        "key": "t_bytes32",
        "label": "mapping(bytes32 => uint256)",
        "numberOfBytes": "32",
        "value": "t_uint256"
      },
      "t_struct(AddressSet)5263_storage": {
        "encoding": "inplace",
        "label": "struct EnumerableSet.AddressSet",
        "members": [
          {
            "astId": 5262,
            "contract": "contracts/oracle/Oracle.sol:Oracle",
            "label": "_inner",
            "offset": 0,
            "slot": "0",
            "type": "t_struct(Set)4948_storage"
          }
        ],
        "numberOfBytes": "64"
      },
      "t_struct(Price)5720_storage": {
        "encoding": "inplace",
        "label": "struct PythStructs.Price",
        "members": [
          {
            "astId": 5713,
            "contract": "contracts/oracle/Oracle.sol:Oracle",
            "label": "price",
            "offset": 0,
            "slot": "0",
            "type": "t_int64"
          },
          {
            "astId": 5715,
            "contract": "contracts/oracle/Oracle.sol:Oracle",
            "label": "conf",
            "offset": 8,
            "slot": "0",
            "type": "t_uint64"
          },
          {
            "astId": 5717,
            "contract": "contracts/oracle/Oracle.sol:Oracle",
            "label": "expo",
            "offset": 16,
            "slot": "0",
            "type": "t_int32"
          },
          {
            "astId": 5719,
            "contract": "contracts/oracle/Oracle.sol:Oracle",
            "label": "publishTime",
            "offset": 0,
            "slot": "1",
            "type": "t_uint256"
          }
        ],
        "numberOfBytes": "64"
      },
      "t_struct(Props)51681_storage": {
        "encoding": "inplace",
        "label": "struct Price.Props",
        "members": [
          {
            "astId": 51678,
            "contract": "contracts/oracle/Oracle.sol:Oracle",
            "label": "min",
            "offset": 0,
            "slot": "0",
            "type": "t_uint256"
          },
          {
            "astId": 51680,
            "contract": "contracts/oracle/Oracle.sol:Oracle",
            "label": "max",
            "offset": 0,
            "slot": "1",
            "type": "t_uint256"
          }
        ],
        "numberOfBytes": "64"
      },
      "t_struct(Set)4948_storage": {
        "encoding": "inplace",
        "label": "struct EnumerableSet.Set",
        "members": [
          {
            "astId": 4943,
            "contract": "contracts/oracle/Oracle.sol:Oracle",
            "label": "_values",
            "offset": 0,
            "slot": "0",
            "type": "t_array(t_bytes32)dyn_storage"
          },
          {
            "astId": 4947,
            "contract": "contracts/oracle/Oracle.sol:Oracle",
            "label": "_indexes",
            "offset": 0,
            "slot": "1",
            "type": "t_mapping(t_bytes32,t_uint256)"
          }
        ],
        "numberOfBytes": "64"
      },
      "t_uint256": {
        "encoding": "inplace",
        "label": "uint256",
        "numberOfBytes": "32"
      },
      "t_uint64": {
        "encoding": "inplace",
        "label": "uint64",
        "numberOfBytes": "8"
      }
    }
  }
}